{
  "abi": [
    {
      "inputs": [
        {
          "internalType": "address",
          "name": "_token0",
          "type": "address"
        },
        {
          "internalType": "address",
          "name": "_token1",
          "type": "address"
        }
      ],
      "stateMutability": "nonpayable",
      "type": "constructor"
    },
    {
      "inputs": [
        {
          "internalType": "uint256",
          "name": "_amount0",
          "type": "uint256"
        },
        {
          "internalType": "uint256",
          "name": "_amount1",
          "type": "uint256"
        }
      ],
      "name": "addLiquidity",
      "outputs": [
        {
          "internalType": "uint256",
          "name": "shares",
          "type": "uint256"
        }
      ],
      "stateMutability": "nonpayable",
      "type": "function"
    },
    {
      "inputs": [
        {
          "internalType": "address",
          "name": "",
          "type": "address"
        }
      ],
      "name": "balanceOf",
      "outputs": [
        {
          "internalType": "uint256",
          "name": "",
          "type": "uint256"
        }
      ],
      "stateMutability": "view",
      "type": "function"
    },
    {
      "inputs": [],
      "name": "decimals0",
      "outputs": [
        {
          "internalType": "uint8",
          "name": "",
          "type": "uint8"
        }
      ],
      "stateMutability": "view",
      "type": "function"
    },
    {
      "inputs": [],
      "name": "decimals1",
      "outputs": [
        {
          "internalType": "uint8",
          "name": "",
          "type": "uint8"
        }
      ],
      "stateMutability": "view",
      "type": "function"
    },
    {
      "inputs": [],
      "name": "price",
      "outputs": [
        {
          "internalType": "uint256",
          "name": "priceToken1",
          "type": "uint256"
        }
      ],
      "stateMutability": "view",
      "type": "function"
    },
    {
      "inputs": [
        {
          "internalType": "uint256",
          "name": "_shares",
          "type": "uint256"
        }
      ],
      "name": "removeLiquidity",
      "outputs": [
        {
          "internalType": "uint256",
          "name": "amount0",
          "type": "uint256"
        },
        {
          "internalType": "uint256",
          "name": "amount1",
          "type": "uint256"
        }
      ],
      "stateMutability": "nonpayable",
      "type": "function"
    },
    {
      "inputs": [],
      "name": "reserve0",
      "outputs": [
        {
          "internalType": "uint256",
          "name": "",
          "type": "uint256"
        }
      ],
      "stateMutability": "view",
      "type": "function"
    },
    {
      "inputs": [],
      "name": "reserve1",
      "outputs": [
        {
          "internalType": "uint256",
          "name": "",
          "type": "uint256"
        }
      ],
      "stateMutability": "view",
      "type": "function"
    },
    {
      "inputs": [
        {
          "internalType": "address",
          "name": "_tokenIn",
          "type": "address"
        },
        {
          "internalType": "uint256",
          "name": "_amountIn",
          "type": "uint256"
        }
      ],
      "name": "swap",
      "outputs": [
        {
          "internalType": "uint256",
          "name": "amountOut",
          "type": "uint256"
        }
      ],
      "stateMutability": "nonpayable",
      "type": "function"
    },
    {
      "inputs": [],
      "name": "token0",
      "outputs": [
        {
          "internalType": "contract IERC20",
          "name": "",
          "type": "address"
        }
      ],
      "stateMutability": "view",
      "type": "function"
    },
    {
      "inputs": [],
      "name": "token1",
      "outputs": [
        {
          "internalType": "contract IERC20",
          "name": "",
          "type": "address"
        }
      ],
      "stateMutability": "view",
      "type": "function"
    },
    {
      "inputs": [],
      "name": "totalSupply",
      "outputs": [
        {
          "internalType": "uint256",
          "name": "",
          "type": "uint256"
        }
      ],
      "stateMutability": "view",
      "type": "function"
    }
  ],
  "bytecode": {
    "object": "0x6101006040523480156200001257600080fd5b506040516200129f3803806200129f83398101604081905262000035916200014b565b6001600160a01b03808316608081905290821660a0526040805163313ce56760e01b8152905163313ce567916004808201926020929091908290030181865afa15801562000087573d6000803e3d6000fd5b505050506040513d601f19601f82011682018060405250810190620000ad919062000183565b60ff1660c08160ff1681525050806001600160a01b031663313ce5676040518163ffffffff1660e01b8152600401602060405180830381865afa158015620000f9573d6000803e3d6000fd5b505050506040513d601f19601f820116820180604052508101906200011f919062000183565b60ff1660e05250620001af9050565b80516001600160a01b03811681146200014657600080fd5b919050565b600080604083850312156200015f57600080fd5b6200016a836200012e565b91506200017a602084016200012e565b90509250929050565b6000602082840312156200019657600080fd5b815160ff81168114620001a857600080fd5b9392505050565b60805160a05160c05160e05161103962000266600039600081816101c701526108e101526000818161014b015261089a015260008181610201015281816102d5015281816104aa015281816105e4015281816108190152818161098401528181610a7a0152610ae801526000818160be01528181610247015281816104180152818161054c015281816107900152818161094901528181610a3801528181610a9b01528181610ac70152610c5901526110396000f3fe608060405234801561001057600080fd5b50600436106100b45760003560e01c80639c8f9f23116100715780639c8f9f231461017f5780639cd441da146101a7578063a035b1fe146101ba578063a28af8a4146101c2578063d004f0f7146101e9578063d21220a7146101fc57600080fd5b80630dfe1681146100b957806318160ddd146100fd578063443cb4bc146101145780635a76f25e1461011d57806370a08231146101265780637bdd6b4414610146575b600080fd5b6100e07f000000000000000000000000000000000000000000000000000000000000000081565b6040516001600160a01b0390911681526020015b60405180910390f35b61010660025481565b6040519081526020016100f4565b61010660005481565b61010660015481565b610106610134366004610dc7565b60036020526000908152604090205481565b61016d7f000000000000000000000000000000000000000000000000000000000000000081565b60405160ff90911681526020016100f4565b61019261018d366004610de2565b610223565b604080519283526020830191909152016100f4565b6101066101b5366004610dfb565b610527565b610106610892565b61016d7f000000000000000000000000000000000000000000000000000000000000000081565b6101066101f7366004610e1d565b610945565b6100e07f000000000000000000000000000000000000000000000000000000000000000081565b6040516370a0823160e01b8152306004820152600090819081906001600160a01b037f000000000000000000000000000000000000000000000000000000000000000016906370a0823190602401602060405180830381865afa15801561028e573d6000803e3d6000fd5b505050506040513d601f19601f820116820180604052508101906102b29190610e47565b6040516370a0823160e01b81523060048201529091506000906001600160a01b037f000000000000000000000000000000000000000000000000000000000000000016906370a0823190602401602060405180830381865afa15801561031c573d6000803e3d6000fd5b505050506040513d601f19601f820116820180604052508101906103409190610e47565b6002549091506103508387610e76565b61035a9190610e8d565b60025490945061036a8287610e76565b6103749190610e8d565b92506000841180156103865750600083115b6103d05760405162461bcd60e51b81526020600482015260166024820152750616d6f756e7430206f7220616d6f756e7431203d20360541b60448201526064015b60405180910390fd5b6103da3386610c9c565b6103fc6103e78584610eaf565b6103f18584610eaf565b600091909155600155565b60405163a9059cbb60e01b8152336004820152602481018590527f00000000000000000000000000000000000000000000000000000000000000006001600160a01b03169063a9059cbb906044016020604051808303816000875af1158015610469573d6000803e3d6000fd5b505050506040513d601f19601f8201168201806040525081019061048d9190610ec2565b5060405163a9059cbb60e01b8152336004820152602481018490527f00000000000000000000000000000000000000000000000000000000000000006001600160a01b03169063a9059cbb906044016020604051808303816000875af11580156104fb573d6000803e3d6000fd5b505050506040513d601f19601f8201168201806040525081019061051f9190610ec2565b505050915091565b6040516323b872dd60e01b8152336004820152306024820152604481018390526000907f00000000000000000000000000000000000000000000000000000000000000006001600160a01b0316906323b872dd906064016020604051808303816000875af115801561059d573d6000803e3d6000fd5b505050506040513d601f19601f820116820180604052508101906105c19190610ec2565b506040516323b872dd60e01b8152336004820152306024820152604481018390527f00000000000000000000000000000000000000000000000000000000000000006001600160a01b0316906323b872dd906064016020604051808303816000875af1158015610635573d6000803e3d6000fd5b505050506040513d601f19601f820116820180604052508101906106599190610ec2565b5060008054118061066c57506000600154115b156106cd578260015461067f9190610e76565b8260005461068d9190610e76565b146106cd5760405162461bcd60e51b815260206004820152601060248201526f78202f207920213d206478202f20647960801b60448201526064016103c7565b6002546000036106f0576106e96106e48385610e76565b610ce6565b9050610730565b61072d600054600254856107049190610e76565b61070e9190610e8d565b60015460025461071e9086610e76565b6107289190610e8d565b610d56565b90505b6000811161076d5760405162461bcd60e51b815260206004820152600a6024820152690736861726573203d20360b41b60448201526064016103c7565b6107773382610d6f565b6040516370a0823160e01b815230600482015261088c907f00000000000000000000000000000000000000000000000000000000000000006001600160a01b0316906370a08231906024015b602060405180830381865afa1580156107e0573d6000803e3d6000fd5b505050506040513d601f19601f820116820180604052508101906108049190610e47565b6040516370a0823160e01b81523060048201527f00000000000000000000000000000000000000000000000000000000000000006001600160a01b0316906370a0823190602401602060405180830381865afa158015610868573d6000803e3d6000fd5b505050506040513d601f19601f820116820180604052508101906103f19190610e47565b92915050565b6000806108c07f00000000000000000000000000000000000000000000000000000000000000006012610ee4565b6108cb90600a610fe1565b6000546108d89190610e76565b905060006109077f00000000000000000000000000000000000000000000000000000000000000006012610ee4565b61091290600a610fe1565b60015461091f9190610e76565b90508161093482670de0b6b3a7640000610e76565b61093e9190610e8d565b9250505090565b60007f00000000000000000000000000000000000000000000000000000000000000006001600160a01b0316836001600160a01b031614806109b857507f00000000000000000000000000000000000000000000000000000000000000006001600160a01b0316836001600160a01b0316145b6109f45760405162461bcd60e51b815260206004820152600d60248201526c34b73b30b634b2103a37b5b2b760991b60448201526064016103c7565b60008211610a345760405162461bcd60e51b815260206004820152600d60248201526c0616d6f756e7420696e203d203609c1b60448201526064016103c7565b60007f00000000000000000000000000000000000000000000000000000000000000006001600160a01b0316846001600160a01b031614905060008060008084610ac5577f00000000000000000000000000000000000000000000000000000000000000007f0000000000000000000000000000000000000000000000000000000000000000600154600054610b0e565b7f00000000000000000000000000000000000000000000000000000000000000007f00000000000000000000000000000000000000000000000000000000000000006000546001545b6040516323b872dd60e01b8152336004820152306024820152604481018c9052939750919550935091506001600160a01b038516906323b872dd906064016020604051808303816000875af1158015610b6b573d6000803e3d6000fd5b505050506040513d601f19601f82011682018060405250810190610b8f9190610ec2565b5060006103e8610ba1896103e5610e76565b610bab9190610e8d565b9050610bb78184610ff0565b610bc18284610e76565b610bcb9190610e8d565b60405163a9059cbb60e01b8152336004820152602481018290529097506001600160a01b0385169063a9059cbb906044016020604051808303816000875af1158015610c1b573d6000803e3d6000fd5b505050506040513d601f19601f82011682018060405250810190610c3f9190610ec2565b506040516370a0823160e01b8152306004820152610c90907f00000000000000000000000000000000000000000000000000000000000000006001600160a01b0316906370a08231906024016107c3565b50505050505092915050565b6001600160a01b03821660009081526003602052604081208054839290610cc4908490610eaf565b925050819055508060026000828254610cdd9190610eaf565b90915550505050565b60006003821115610d475750806000610d00600283610e8d565b610d0b906001610ff0565b90505b81811015610d4157905080600281610d268186610e8d565b610d309190610ff0565b610d3a9190610e8d565b9050610d0e565b50919050565b8115610d51575060015b919050565b600081831115610d665781610d68565b825b9392505050565b6001600160a01b03821660009081526003602052604081208054839290610d97908490610ff0565b925050819055508060026000828254610cdd9190610ff0565b80356001600160a01b0381168114610d5157600080fd5b600060208284031215610dd957600080fd5b610d6882610db0565b600060208284031215610df457600080fd5b5035919050565b60008060408385031215610e0e57600080fd5b50508035926020909101359150565b60008060408385031215610e3057600080fd5b610e3983610db0565b946020939093013593505050565b600060208284031215610e5957600080fd5b5051919050565b634e487b7160e01b600052601160045260246000fd5b808202811582820484141761088c5761088c610e60565b600082610eaa57634e487b7160e01b600052601260045260246000fd5b500490565b8181038181111561088c5761088c610e60565b600060208284031215610ed457600080fd5b81518015158114610d6857600080fd5b60ff828116828216039081111561088c5761088c610e60565b600181815b80851115610f38578160001904821115610f1e57610f1e610e60565b80851615610f2b57918102915b93841c9390800290610f02565b509250929050565b600082610f4f5750600161088c565b81610f5c5750600061088c565b8160018114610f725760028114610f7c57610f98565b600191505061088c565b60ff841115610f8d57610f8d610e60565b50506001821b61088c565b5060208310610133831016604e8410600b8410161715610fbb575081810a61088c565b610fc58383610efd565b8060001904821115610fd957610fd9610e60565b029392505050565b6000610d6860ff841683610f40565b8082018082111561088c5761088c610e6056fea2646970667358221220c5f4707794e098eb6b40414c4ac0345d1f7fbb0cbf981e6e134ea8ac267053fa64736f6c63430008130033",
    "linkReferences": {}
  },
  "methodIdentifiers": {
    "addLiquidity(uint256,uint256)": "9cd441da",
    "balanceOf(address)": "70a08231",
    "decimals0()": "7bdd6b44",
    "decimals1()": "a28af8a4",
    "price()": "a035b1fe",
    "removeLiquidity(uint256)": "9c8f9f23",
    "reserve0()": "443cb4bc",
    "reserve1()": "5a76f25e",
    "swap(address,uint256)": "d004f0f7",
    "token0()": "0dfe1681",
    "token1()": "d21220a7",
    "totalSupply()": "18160ddd"
  },
  "id": 20
}