{
  "abi": [
    {
      "inputs": [
        {
          "internalType": "address",
          "name": "_token0",
          "type": "address"
        },
        {
          "internalType": "address",
          "name": "_token1",
          "type": "address"
        }
      ],
      "stateMutability": "nonpayable",
      "type": "constructor"
    },
    {
      "inputs": [
        {
          "internalType": "uint256",
          "name": "_amount0",
          "type": "uint256"
        },
        {
          "internalType": "uint256",
          "name": "_amount1",
          "type": "uint256"
        }
      ],
      "name": "addLiquidity",
      "outputs": [
        {
          "internalType": "uint256",
          "name": "shares",
          "type": "uint256"
        }
      ],
      "stateMutability": "nonpayable",
      "type": "function"
    },
    {
      "inputs": [
        {
          "internalType": "address",
          "name": "",
          "type": "address"
        }
      ],
      "name": "balanceOf",
      "outputs": [
        {
          "internalType": "uint256",
          "name": "",
          "type": "uint256"
        }
      ],
      "stateMutability": "view",
      "type": "function"
    },
    {
      "inputs": [],
      "name": "decimals0",
      "outputs": [
        {
          "internalType": "uint8",
          "name": "",
          "type": "uint8"
        }
      ],
      "stateMutability": "view",
      "type": "function"
    },
    {
      "inputs": [],
      "name": "decimals1",
      "outputs": [
        {
          "internalType": "uint8",
          "name": "",
          "type": "uint8"
        }
      ],
      "stateMutability": "view",
      "type": "function"
    },
    {
      "inputs": [
        {
          "internalType": "uint256",
          "name": "dx",
          "type": "uint256"
        },
        {
          "internalType": "contract IERC20",
          "name": "inToken",
          "type": "address"
        }
      ],
      "name": "get_dy",
      "outputs": [
        {
          "internalType": "uint256",
          "name": "dy",
          "type": "uint256"
        }
      ],
      "stateMutability": "view",
      "type": "function"
    },
    {
      "inputs": [],
      "name": "price",
      "outputs": [
        {
          "internalType": "uint256",
          "name": "priceToken1",
          "type": "uint256"
        }
      ],
      "stateMutability": "view",
      "type": "function"
    },
    {
      "inputs": [
        {
          "internalType": "uint256",
          "name": "_shares",
          "type": "uint256"
        }
      ],
      "name": "removeLiquidity",
      "outputs": [
        {
          "internalType": "uint256",
          "name": "amount0",
          "type": "uint256"
        },
        {
          "internalType": "uint256",
          "name": "amount1",
          "type": "uint256"
        }
      ],
      "stateMutability": "nonpayable",
      "type": "function"
    },
    {
      "inputs": [],
      "name": "reserve0",
      "outputs": [
        {
          "internalType": "uint256",
          "name": "",
          "type": "uint256"
        }
      ],
      "stateMutability": "view",
      "type": "function"
    },
    {
      "inputs": [],
      "name": "reserve1",
      "outputs": [
        {
          "internalType": "uint256",
          "name": "",
          "type": "uint256"
        }
      ],
      "stateMutability": "view",
      "type": "function"
    },
    {
      "inputs": [
        {
          "internalType": "address",
          "name": "_tokenIn",
          "type": "address"
        },
        {
          "internalType": "uint256",
          "name": "_amountIn",
          "type": "uint256"
        }
      ],
      "name": "swap",
      "outputs": [
        {
          "internalType": "uint256",
          "name": "amountOut",
          "type": "uint256"
        }
      ],
      "stateMutability": "nonpayable",
      "type": "function"
    },
    {
      "inputs": [],
      "name": "token0",
      "outputs": [
        {
          "internalType": "contract IERC20",
          "name": "",
          "type": "address"
        }
      ],
      "stateMutability": "view",
      "type": "function"
    },
    {
      "inputs": [],
      "name": "token1",
      "outputs": [
        {
          "internalType": "contract IERC20",
          "name": "",
          "type": "address"
        }
      ],
      "stateMutability": "view",
      "type": "function"
    },
    {
      "inputs": [],
      "name": "totalSupply",
      "outputs": [
        {
          "internalType": "uint256",
          "name": "",
          "type": "uint256"
        }
      ],
      "stateMutability": "view",
      "type": "function"
    }
  ],
  "bytecode": {
    "object": "0x6101006040523480156200001257600080fd5b50604051620013de380380620013de83398101604081905262000035916200014b565b6001600160a01b03808316608081905290821660a0526040805163313ce56760e01b8152905163313ce567916004808201926020929091908290030181865afa15801562000087573d6000803e3d6000fd5b505050506040513d601f19601f82011682018060405250810190620000ad919062000183565b60ff1660c08160ff1681525050806001600160a01b031663313ce5676040518163ffffffff1660e01b8152600401602060405180830381865afa158015620000f9573d6000803e3d6000fd5b505050506040513d601f19601f820116820180604052508101906200011f919062000183565b60ff1660e05250620001af9050565b80516001600160a01b03811681146200014657600080fd5b919050565b600080604083850312156200015f57600080fd5b6200016a836200012e565b91506200017a602084016200012e565b90509250929050565b6000602082840312156200019657600080fd5b815160ff81168114620001a857600080fd5b9392505050565b60805160a05160c05160e0516111716200026d600039600081816101e2015261090f01526000818161016601526108c801526000818161022f01528181610303015281816104d8015281816106120152818161084701528181610a8701528181610b7d0152610beb01526000818160d901528181610275015281816104460152818161057a015281816107be0152818161097701528181610a4c01528181610b3b01528181610b9e01528181610bca0152610d5c01526111716000f3fe608060405234801561001057600080fd5b50600436106100cf5760003560e01c80639c8f9f231161008c578063a28af8a411610066578063a28af8a4146101dd578063c115626814610204578063d004f0f714610217578063d21220a71461022a57600080fd5b80639c8f9f231461019a5780639cd441da146101c2578063a035b1fe146101d557600080fd5b80630dfe1681146100d457806318160ddd14610118578063443cb4bc1461012f5780635a76f25e1461013857806370a08231146101415780637bdd6b4414610161575b600080fd5b6100fb7f000000000000000000000000000000000000000000000000000000000000000081565b6040516001600160a01b0390911681526020015b60405180910390f35b61012160025481565b60405190815260200161010f565b61012160005481565b61012160015481565b61012161014f366004610ecb565b60036020526000908152604090205481565b6101887f000000000000000000000000000000000000000000000000000000000000000081565b60405160ff909116815260200161010f565b6101ad6101a8366004610ee8565b610251565b6040805192835260208301919091520161010f565b6101216101d0366004610f01565b610555565b6101216108c0565b6101887f000000000000000000000000000000000000000000000000000000000000000081565b610121610212366004610f23565b610973565b610121610225366004610f53565b610a48565b6100fb7f000000000000000000000000000000000000000000000000000000000000000081565b6040516370a0823160e01b8152306004820152600090819081906001600160a01b037f000000000000000000000000000000000000000000000000000000000000000016906370a0823190602401602060405180830381865afa1580156102bc573d6000803e3d6000fd5b505050506040513d601f19601f820116820180604052508101906102e09190610f7f565b6040516370a0823160e01b81523060048201529091506000906001600160a01b037f000000000000000000000000000000000000000000000000000000000000000016906370a0823190602401602060405180830381865afa15801561034a573d6000803e3d6000fd5b505050506040513d601f19601f8201168201806040525081019061036e9190610f7f565b60025490915061037e8387610fae565b6103889190610fc5565b6002549094506103988287610fae565b6103a29190610fc5565b92506000841180156103b45750600083115b6103fe5760405162461bcd60e51b81526020600482015260166024820152750616d6f756e7430206f7220616d6f756e7431203d20360541b60448201526064015b60405180910390fd5b6104083386610d9f565b61042a6104158584610fe7565b61041f8584610fe7565b600091909155600155565b60405163a9059cbb60e01b8152336004820152602481018590527f00000000000000000000000000000000000000000000000000000000000000006001600160a01b03169063a9059cbb906044016020604051808303816000875af1158015610497573d6000803e3d6000fd5b505050506040513d601f19601f820116820180604052508101906104bb9190610ffa565b5060405163a9059cbb60e01b8152336004820152602481018490527f00000000000000000000000000000000000000000000000000000000000000006001600160a01b03169063a9059cbb906044016020604051808303816000875af1158015610529573d6000803e3d6000fd5b505050506040513d601f19601f8201168201806040525081019061054d9190610ffa565b505050915091565b6040516323b872dd60e01b8152336004820152306024820152604481018390526000907f00000000000000000000000000000000000000000000000000000000000000006001600160a01b0316906323b872dd906064016020604051808303816000875af11580156105cb573d6000803e3d6000fd5b505050506040513d601f19601f820116820180604052508101906105ef9190610ffa565b506040516323b872dd60e01b8152336004820152306024820152604481018390527f00000000000000000000000000000000000000000000000000000000000000006001600160a01b0316906323b872dd906064016020604051808303816000875af1158015610663573d6000803e3d6000fd5b505050506040513d601f19601f820116820180604052508101906106879190610ffa565b5060008054118061069a57506000600154115b156106fb57826001546106ad9190610fae565b826000546106bb9190610fae565b146106fb5760405162461bcd60e51b815260206004820152601060248201526f78202f207920213d206478202f20647960801b60448201526064016103f5565b60025460000361071e576107176107128385610fae565b610de9565b905061075e565b61075b600054600254856107329190610fae565b61073c9190610fc5565b60015460025461074c9086610fae565b6107569190610fc5565b610e59565b90505b6000811161079b5760405162461bcd60e51b815260206004820152600a6024820152690736861726573203d20360b41b60448201526064016103f5565b6107a53382610e72565b6040516370a0823160e01b81523060048201526108ba907f00000000000000000000000000000000000000000000000000000000000000006001600160a01b0316906370a08231906024015b602060405180830381865afa15801561080e573d6000803e3d6000fd5b505050506040513d601f19601f820116820180604052508101906108329190610f7f565b6040516370a0823160e01b81523060048201527f00000000000000000000000000000000000000000000000000000000000000006001600160a01b0316906370a0823190602401602060405180830381865afa158015610896573d6000803e3d6000fd5b505050506040513d601f19601f8201168201806040525081019061041f9190610f7f565b92915050565b6000806108ee7f0000000000000000000000000000000000000000000000000000000000000000601261101c565b6108f990600a611119565b6000546109069190610fae565b905060006109357f0000000000000000000000000000000000000000000000000000000000000000601261101c565b61094090600a611119565b60015461094d9190610fae565b90508161096282670de0b6b3a7640000610fae565b61096c9190610fc5565b9250505090565b60007f00000000000000000000000000000000000000000000000000000000000000006001600160a01b0316826001600160a01b0316036109fb5760006001546000546109c09190610fae565b6001549091506109d1856003610fae565b6000546109de9190611128565b6109e89083610fc5565b6109f29082610fe7565b925050506108ba565b6000600154600054610a0d9190610fae565b600054909150610a1e856003610fae565b600154610a2b9190611128565b610a359083610fc5565b610a3f9082610fe7565b95945050505050565b60007f00000000000000000000000000000000000000000000000000000000000000006001600160a01b0316836001600160a01b03161480610abb57507f00000000000000000000000000000000000000000000000000000000000000006001600160a01b0316836001600160a01b0316145b610af75760405162461bcd60e51b815260206004820152600d60248201526c34b73b30b634b2103a37b5b2b760991b60448201526064016103f5565b60008211610b375760405162461bcd60e51b815260206004820152600d60248201526c0616d6f756e7420696e203d203609c1b60448201526064016103f5565b60007f00000000000000000000000000000000000000000000000000000000000000006001600160a01b0316846001600160a01b031614905060008060008084610bc8577f00000000000000000000000000000000000000000000000000000000000000007f0000000000000000000000000000000000000000000000000000000000000000600154600054610c11565b7f00000000000000000000000000000000000000000000000000000000000000007f00000000000000000000000000000000000000000000000000000000000000006000546001545b6040516323b872dd60e01b8152336004820152306024820152604481018c9052939750919550935091506001600160a01b038516906323b872dd906064016020604051808303816000875af1158015610c6e573d6000803e3d6000fd5b505050506040513d601f19601f82011682018060405250810190610c929190610ffa565b5060006103e8610ca4896103e5610fae565b610cae9190610fc5565b9050610cba8184611128565b610cc48284610fae565b610cce9190610fc5565b60405163a9059cbb60e01b8152336004820152602481018290529097506001600160a01b0385169063a9059cbb906044016020604051808303816000875af1158015610d1e573d6000803e3d6000fd5b505050506040513d601f19601f82011682018060405250810190610d429190610ffa565b506040516370a0823160e01b8152306004820152610d93907f00000000000000000000000000000000000000000000000000000000000000006001600160a01b0316906370a08231906024016107f1565b50505050505092915050565b6001600160a01b03821660009081526003602052604081208054839290610dc7908490610fe7565b925050819055508060026000828254610de09190610fe7565b90915550505050565b60006003821115610e4a5750806000610e03600283610fc5565b610e0e906001611128565b90505b81811015610e4457905080600281610e298186610fc5565b610e339190611128565b610e3d9190610fc5565b9050610e11565b50919050565b8115610e54575060015b919050565b600081831115610e695781610e6b565b825b9392505050565b6001600160a01b03821660009081526003602052604081208054839290610e9a908490611128565b925050819055508060026000828254610de09190611128565b6001600160a01b0381168114610ec857600080fd5b50565b600060208284031215610edd57600080fd5b8135610e6b81610eb3565b600060208284031215610efa57600080fd5b5035919050565b60008060408385031215610f1457600080fd5b50508035926020909101359150565b60008060408385031215610f3657600080fd5b823591506020830135610f4881610eb3565b809150509250929050565b60008060408385031215610f6657600080fd5b8235610f7181610eb3565b946020939093013593505050565b600060208284031215610f9157600080fd5b5051919050565b634e487b7160e01b600052601160045260246000fd5b80820281158282048414176108ba576108ba610f98565b600082610fe257634e487b7160e01b600052601260045260246000fd5b500490565b818103818111156108ba576108ba610f98565b60006020828403121561100c57600080fd5b81518015158114610e6b57600080fd5b60ff82811682821603908111156108ba576108ba610f98565b600181815b8085111561107057816000190482111561105657611056610f98565b8085161561106357918102915b93841c939080029061103a565b509250929050565b600082611087575060016108ba565b81611094575060006108ba565b81600181146110aa57600281146110b4576110d0565b60019150506108ba565b60ff8411156110c5576110c5610f98565b50506001821b6108ba565b5060208310610133831016604e8410600b84101617156110f3575081810a6108ba565b6110fd8383611035565b806000190482111561111157611111610f98565b029392505050565b6000610e6b60ff841683611078565b808201808211156108ba576108ba610f9856fea2646970667358221220dfa1b368e1d840913397b3bf5074df554f98e79acc9a26b5fd380340e08fe83e64736f6c63430008130033",
    "linkReferences": {}
  },
  "methodIdentifiers": {
    "addLiquidity(uint256,uint256)": "9cd441da",
    "balanceOf(address)": "70a08231",
    "decimals0()": "7bdd6b44",
    "decimals1()": "a28af8a4",
    "get_dy(uint256,address)": "c1156268",
    "price()": "a035b1fe",
    "removeLiquidity(uint256)": "9c8f9f23",
    "reserve0()": "443cb4bc",
    "reserve1()": "5a76f25e",
    "swap(address,uint256)": "d004f0f7",
    "token0()": "0dfe1681",
    "token1()": "d21220a7",
    "totalSupply()": "18160ddd"
  },
  "id": 50
}