{
  "abi": [
    {
      "inputs": [
        {
          "internalType": "uint256[2]",
          "name": "_pA",
          "type": "uint256[2]"
        },
        {
          "internalType": "uint256[2][2]",
          "name": "_pB",
          "type": "uint256[2][2]"
        },
        {
          "internalType": "uint256[2]",
          "name": "_pC",
          "type": "uint256[2]"
        },
        {
          "internalType": "uint256[9]",
          "name": "_pubSignals",
          "type": "uint256[9]"
        }
      ],
      "name": "verifyProof",
      "outputs": [
        {
          "internalType": "bool",
          "name": "",
          "type": "bool"
        }
      ],
      "stateMutability": "view",
      "type": "function"
    }
  ],
  "bytecode": {
    "object": "0x608060405234801561001057600080fd5b50610854806100206000396000f3fe608060405234801561001057600080fd5b506004361061002b5760003560e01c8063c542c93b14610030575b600080fd5b61004361003e3660046107b8565b610057565b604051901515815260200160405180910390f35b60006106f9565b7f30644e72e131a029b85045b68181585d97816a916871ca8d3c208c16d87cfd47811061008f576000805260206000f35b50565b600060405183815284602082015285604082015260408160608360076107d05a03fa9150816100c5576000805260206000f35b825160408201526020830151606082015260408360808360066107d05a03fa915050806100f6576000805260206000f35b5050505050565b7f1d79b94ee000667b48c54b83003e17ab82f4164c3cd713703c52094b18d284da85527f16f984460067e8e39cdbea57e7d2dc90044c7c3d70b671096c454bcc38b1ea0760208601526000608086018661019a87357f108fcb9c9b3c3f26361e76c2a1c872cec564674ac5040a5ffc3e98d682f29a657f06a3224626c2d32389a7e7e448f8bff27918176a457fc2550062d7cf06b4cab084610092565b6101e960208801357ee0fc324114b675432a8cd66a2f3b98b41d590585bf600199cc63ad07cf3c947f24638aff39e154baa3b626d27160f7ab39811f82be5b142498f09cd6393d372c84610092565b61023960408801357f09083f6a7f2e03a052ac444bbce924ae136964b7514ba6c2e9b36f3f8e53988f7f2664012c3b3d5fe25dd4c61a07c5a446897d336a95060bb2c982545d920e704284610092565b61028860608801357e66189dd75e93fe1445c98262e7e1975ca1b22caaacee906c18b7e0d7cf89d37f15c8283a2b3de139c840ae6a96702c9a3663c85292c0a5a37413f9c6c82f8b1784610092565b6102d860808801357f1797115aed7c98a84f001479cfd698f7e066e934e019e2191c1ae639cbe554397f25c51eb1ea2e68877d830b78070382b08fc8a8847a1157f078463b31deb3375784610092565b61032860a08801357f027ec754f809560a7d6c3471c59bc549c0bfd230ce2431043f6b99a36849b7cd7f1be1d2b15a1ad8f6f7866073e904314ec00814076ba4fdab3e3e1ba06f0d20c084610092565b61037860c08801357f10130ed7f9c078379711e56444b2460e342c38c07b6f5f1cbd20f4e444d30b817f013159851aaee1dc9d509066ad6c39cfc7185b1a625257a0129e259235ef22e884610092565b6103c860e08801357f04688c31b6dc6bc8c35b15f7a9735f54abbeefa369e0b17ba3cedc26eb385f3c7f2e8f1828e244c2f0b6cfb77ff3e37b9ab9b9eac25965cc9b42116dd35365b2dd84610092565b6104196101008801357f237442925aa604acf673a9ebbbc48dc488d2937a0e10e2809cbe8086eddb2ea87f2652ff2597b0dab05ec8d99441ace66cabc6523b9676b16b7b997f990d37e5dd84610092565b50823581527f30644e72e131a029b85045b68181585d97816a916871ca8d3c208c16d87cfd4760208401357f30644e72e131a029b85045b68181585d97816a916871ca8d3c208c16d87cfd4703066020820152833560408201526020840135606082015260408401356080820152606084013560a08201527f2d4d9aa7e302d9df41749d5507949d05dbea33fbb16c643b22f599a2be6df2e260c08201527f14bedd503c37ceb061d8ec60209fe345ce89830a19230301f076caff004d192660e08201527f0967032fcbf776d1afc985f88877f182d38480a653f2decaa9794cbc3bf3060c6101008201527f0e187847ad4c798374d0d6732bf501847dd68bc0e071241e0213bc7fc13db7ab6101208201527f304cfbd1e08a704a99f5e847d93f8c3caafddec46b7a0d379da69a4d112346a76101408201527f1739c1b1a457a8c7313123d24d2f9192f896b7c63eea05a9d57f06547ad0cec8610160820152600087015161018082015260206000018701516101a08201527f198e9393920d483a7260bfb731fb5d25f1aa493335a9e71297e485b7aef312c26101c08201527f1800deef121f1e76426a00665e5c4479674322d4f75edadd46debd5cd992f6ed6101e08201527f090689d0585ff075ec9e99ad690c3395bc4b313370b38ef355acdadcd122975b6102008201527f12c85ea5db8c6deb4aab71808dcb408fe3d1e7690c43d37b4ce6cc0166fa7daa610220820152843561024082015260208501356102608201527f1f58ecf2958d0248b1505ca8c4918c6f3f1804926fc177dabffbe0d52d5c5b1d6102808201527f23eb6e6e7b15d7d5c6a5149cc965e30b0d4f75bc42af28479fa91477e968c14e6102a08201527f0e292ce5d60b5d61bdfefaf797893b917fc0b11021ef1517c9be92f5b7b60e456102c08201527f14692bf1f0dd8d7d68cec91a635fede6f12fdcbc356a3b189e90a335a9864b736102e08201526020816103008360086107d05a03fa9051169695505050505050565b6040516103808101604052610711600084013561005e565b61071e602084013561005e565b61072b604084013561005e565b610738606084013561005e565b610745608084013561005e565b61075260a084013561005e565b61075f60c084013561005e565b61076c60e084013561005e565b61077a61010084013561005e565b61078861012084013561005e565b610795818486888a6100fd565b90508060005260206000f35b80604081018310156107b257600080fd5b92915050565b6000806000806102208086880312156107d057600080fd5b6107da87876107a1565b945060c08601878111156107ed57600080fd5b6040870194506107fd88826107a1565b93505086818701111561080f57600080fd5b5092959194509261010001915056fea26469706673582212202e2b5af0be9c55c355f8f5db12e1042aa40327f8d72061a4033ce2fda158a51a64736f6c63430008130033",
    "linkReferences": {}
  },
  "methodIdentifiers": {
    "verifyProof(uint256[2],uint256[2][2],uint256[2],uint256[9])": "c542c93b"
  },
  "id": 54
}