{
  "abi": [
    {
      "inputs": [
        {
          "internalType": "contract CPAMM",
          "name": "_dexA",
          "type": "address"
        },
        {
          "internalType": "contract CPAMM",
          "name": "_dexB",
          "type": "address"
        },
        {
          "internalType": "address",
          "name": "_weth",
          "type": "address"
        },
        {
          "internalType": "address",
          "name": "_dai",
          "type": "address"
        },
        {
          "internalType": "contract Groth16Verifier",
          "name": "_verifier",
          "type": "address"
        },
        {
          "internalType": "contract ISafeManager",
          "name": "_safeProtocolManager",
          "type": "address"
        }
      ],
      "stateMutability": "nonpayable",
      "type": "constructor"
    },
    {
      "inputs": [
        {
          "components": [
            {
              "internalType": "uint256",
              "name": "dyA",
              "type": "uint256"
            },
            {
              "internalType": "uint256",
              "name": "dyB",
              "type": "uint256"
            }
          ],
          "internalType": "struct Module.Received",
          "name": "received",
          "type": "tuple"
        }
      ],
      "name": "ReturnReceived",
      "type": "error"
    },
    {
      "anonymous": false,
      "inputs": [
        {
          "indexed": true,
          "internalType": "bytes32",
          "name": "metadataHash",
          "type": "bytes32"
        },
        {
          "indexed": false,
          "internalType": "bytes",
          "name": "data",
          "type": "bytes"
        }
      ],
      "name": "Metadata",
      "type": "event"
    },
    {
      "inputs": [
        {
          "components": [
            {
              "internalType": "contract ISafe",
              "name": "safe",
              "type": "address"
            },
            {
              "internalType": "address",
              "name": "inToken",
              "type": "address"
            },
            {
              "internalType": "address",
              "name": "outToken",
              "type": "address"
            },
            {
              "internalType": "uint256",
              "name": "dx",
              "type": "uint256"
            },
            {
              "internalType": "uint256",
              "name": "minDy",
              "type": "uint256"
            },
            {
              "internalType": "uint256",
              "name": "nonce",
              "type": "uint256"
            },
            {
              "internalType": "bytes",
              "name": "signature",
              "type": "bytes"
            }
          ],
          "internalType": "struct Module.UserData",
          "name": "intent",
          "type": "tuple"
        },
        {
          "internalType": "uint256",
          "name": "dxA",
          "type": "uint256"
        },
        {
          "internalType": "uint256",
          "name": "dxB",
          "type": "uint256"
        }
      ],
      "name": "executeIntent",
      "outputs": [
        {
          "components": [
            {
              "internalType": "uint256",
              "name": "dyA",
              "type": "uint256"
            },
            {
              "internalType": "uint256",
              "name": "dyB",
              "type": "uint256"
            }
          ],
          "internalType": "struct Module.Received",
          "name": "received",
          "type": "tuple"
        }
      ],
      "stateMutability": "nonpayable",
      "type": "function"
    },
    {
      "inputs": [
        {
          "internalType": "bool",
          "name": "daiForEth",
          "type": "bool"
        }
      ],
      "name": "getState",
      "outputs": [
        {
          "components": [
            {
              "internalType": "uint256",
              "name": "xA",
              "type": "uint256"
            },
            {
              "internalType": "uint256",
              "name": "yA",
              "type": "uint256"
            },
            {
              "internalType": "uint256",
              "name": "xB",
              "type": "uint256"
            },
            {
              "internalType": "uint256",
              "name": "yB",
              "type": "uint256"
            }
          ],
          "internalType": "struct Module.State",
          "name": "state",
          "type": "tuple"
        }
      ],
      "stateMutability": "view",
      "type": "function"
    },
    {
      "inputs": [],
      "name": "metadataHash",
      "outputs": [
        {
          "internalType": "bytes32",
          "name": "",
          "type": "bytes32"
        }
      ],
      "stateMutability": "view",
      "type": "function"
    },
    {
      "inputs": [],
      "name": "metadataProvider",
      "outputs": [
        {
          "internalType": "uint256",
          "name": "providerType",
          "type": "uint256"
        },
        {
          "internalType": "bytes",
          "name": "location",
          "type": "bytes"
        }
      ],
      "stateMutability": "view",
      "type": "function"
    },
    {
      "inputs": [],
      "name": "name",
      "outputs": [
        {
          "internalType": "string",
          "name": "",
          "type": "string"
        }
      ],
      "stateMutability": "view",
      "type": "function"
    },
    {
      "inputs": [],
      "name": "requiresRootAccess",
      "outputs": [
        {
          "internalType": "bool",
          "name": "",
          "type": "bool"
        }
      ],
      "stateMutability": "view",
      "type": "function"
    },
    {
      "inputs": [
        {
          "components": [
            {
              "internalType": "contract ISafe",
              "name": "safe",
              "type": "address"
            },
            {
              "internalType": "address",
              "name": "inToken",
              "type": "address"
            },
            {
              "internalType": "address",
              "name": "outToken",
              "type": "address"
            },
            {
              "internalType": "uint256",
              "name": "dx",
              "type": "uint256"
            },
            {
              "internalType": "uint256",
              "name": "minDy",
              "type": "uint256"
            },
            {
              "internalType": "uint256",
              "name": "nonce",
              "type": "uint256"
            },
            {
              "internalType": "bytes",
              "name": "signature",
              "type": "bytes"
            }
          ],
          "internalType": "struct Module.UserData",
          "name": "intent",
          "type": "tuple"
        },
        {
          "components": [
            {
              "internalType": "uint256",
              "name": "dxA",
              "type": "uint256"
            },
            {
              "internalType": "uint256",
              "name": "dxB",
              "type": "uint256"
            },
            {
              "internalType": "uint256[2]",
              "name": "_pA",
              "type": "uint256[2]"
            },
            {
              "internalType": "uint256[2][2]",
              "name": "_pB",
              "type": "uint256[2][2]"
            },
            {
              "internalType": "uint256[2]",
              "name": "_pC",
              "type": "uint256[2]"
            }
          ],
          "internalType": "struct Module.Solution",
          "name": "solution",
          "type": "tuple"
        }
      ],
      "name": "simulateExecution",
      "outputs": [
        {
          "components": [
            {
              "internalType": "uint256",
              "name": "dyA",
              "type": "uint256"
            },
            {
              "internalType": "uint256",
              "name": "dyB",
              "type": "uint256"
            }
          ],
          "internalType": "struct Module.Received",
          "name": "_received",
          "type": "tuple"
        }
      ],
      "stateMutability": "nonpayable",
      "type": "function"
    },
    {
      "inputs": [
        {
          "components": [
            {
              "internalType": "contract ISafe",
              "name": "safe",
              "type": "address"
            },
            {
              "internalType": "address",
              "name": "inToken",
              "type": "address"
            },
            {
              "internalType": "address",
              "name": "outToken",
              "type": "address"
            },
            {
              "internalType": "uint256",
              "name": "dx",
              "type": "uint256"
            },
            {
              "internalType": "uint256",
              "name": "minDy",
              "type": "uint256"
            },
            {
              "internalType": "uint256",
              "name": "nonce",
              "type": "uint256"
            },
            {
              "internalType": "bytes",
              "name": "signature",
              "type": "bytes"
            }
          ],
          "internalType": "struct Module.UserData",
          "name": "intent",
          "type": "tuple"
        },
        {
          "components": [
            {
              "internalType": "uint256",
              "name": "dxA",
              "type": "uint256"
            },
            {
              "internalType": "uint256",
              "name": "dxB",
              "type": "uint256"
            },
            {
              "internalType": "uint256[2]",
              "name": "_pA",
              "type": "uint256[2]"
            },
            {
              "internalType": "uint256[2][2]",
              "name": "_pB",
              "type": "uint256[2][2]"
            },
            {
              "internalType": "uint256[2]",
              "name": "_pC",
              "type": "uint256[2]"
            }
          ],
          "internalType": "struct Module.Solution",
          "name": "solution",
          "type": "tuple"
        }
      ],
      "name": "tradeWithIntent",
      "outputs": [],
      "stateMutability": "nonpayable",
      "type": "function"
    },
    {
      "inputs": [
        {
          "components": [
            {
              "internalType": "contract ISafe",
              "name": "safe",
              "type": "address"
            },
            {
              "internalType": "address",
              "name": "inToken",
              "type": "address"
            },
            {
              "internalType": "address",
              "name": "outToken",
              "type": "address"
            },
            {
              "internalType": "uint256",
              "name": "dx",
              "type": "uint256"
            },
            {
              "internalType": "uint256",
              "name": "minDy",
              "type": "uint256"
            },
            {
              "internalType": "uint256",
              "name": "nonce",
              "type": "uint256"
            },
            {
              "internalType": "bytes",
              "name": "signature",
              "type": "bytes"
            }
          ],
          "internalType": "struct Module.UserData",
          "name": "intent",
          "type": "tuple"
        }
      ],
      "name": "validateIntent",
      "outputs": [
        {
          "internalType": "bool",
          "name": "daiForEth",
          "type": "bool"
        }
      ],
      "stateMutability": "view",
      "type": "function"
    },
    {
      "inputs": [
        {
          "components": [
            {
              "internalType": "contract ISafe",
              "name": "safe",
              "type": "address"
            },
            {
              "internalType": "address",
              "name": "inToken",
              "type": "address"
            },
            {
              "internalType": "address",
              "name": "outToken",
              "type": "address"
            },
            {
              "internalType": "uint256",
              "name": "dx",
              "type": "uint256"
            },
            {
              "internalType": "uint256",
              "name": "minDy",
              "type": "uint256"
            },
            {
              "internalType": "uint256",
              "name": "nonce",
              "type": "uint256"
            },
            {
              "internalType": "bytes",
              "name": "signature",
              "type": "bytes"
            }
          ],
          "internalType": "struct Module.UserData",
          "name": "intent",
          "type": "tuple"
        },
        {
          "components": [
            {
              "internalType": "uint256",
              "name": "dxA",
              "type": "uint256"
            },
            {
              "internalType": "uint256",
              "name": "dxB",
              "type": "uint256"
            },
            {
              "internalType": "uint256[2]",
              "name": "_pA",
              "type": "uint256[2]"
            },
            {
              "internalType": "uint256[2][2]",
              "name": "_pB",
              "type": "uint256[2][2]"
            },
            {
              "internalType": "uint256[2]",
              "name": "_pC",
              "type": "uint256[2]"
            }
          ],
          "internalType": "struct Module.Solution",
          "name": "solution",
          "type": "tuple"
        },
        {
          "components": [
            {
              "internalType": "uint256",
              "name": "xA",
              "type": "uint256"
            },
            {
              "internalType": "uint256",
              "name": "yA",
              "type": "uint256"
            },
            {
              "internalType": "uint256",
              "name": "xB",
              "type": "uint256"
            },
            {
              "internalType": "uint256",
              "name": "yB",
              "type": "uint256"
            }
          ],
          "internalType": "struct Module.State",
          "name": "s",
          "type": "tuple"
        },
        {
          "components": [
            {
              "internalType": "uint256",
              "name": "dyA",
              "type": "uint256"
            },
            {
              "internalType": "uint256",
              "name": "dyB",
              "type": "uint256"
            }
          ],
          "internalType": "struct Module.Received",
          "name": "received",
          "type": "tuple"
        }
      ],
      "name": "validateSolution",
      "outputs": [],
      "stateMutability": "view",
      "type": "function"
    },
    {
      "inputs": [],
      "name": "version",
      "outputs": [
        {
          "internalType": "string",
          "name": "",
          "type": "string"
        }
      ],
      "stateMutability": "view",
      "type": "function"
    }
  ],
  "bytecode": {
    "object": "0x6101a06040523480156200001257600080fd5b506040516200202a3803806200202a833981016040819052620000359162000213565b6040518060a001604052806040518060400160405280600c81526020016b2932b630bc9028363ab3b4b760a11b8152508152602001604051806040016040528060058152602001640312e302e360dc1b815250815260200160001515815260200160405180602001604052806000815250815260200160405180606001604052806040815260200162001fea60409139905280518190600090620000da90826200034c565b506020810151600190620000ef90826200034c565b506040810151151560805262000105816200018f565b805160209091012060a081905290507f522c683f99251eea7f3b027592e92a5398e7582983be1f7c0f33715ce025740f62000140836200018f565b6040516200014f91906200046c565b60405180910390a2506001600160a01b0395861660e0529385166101005291841661012052831661014052821660c0523361016052166101805262000530565b606060008083600001518460200151856040015186606001518760800151604051602001620001c395949392919062000488565b60408051601f1981840301815290829052620001e4939291602001620004f1565b6040516020818303038152906040529050919050565b6001600160a01b03811681146200021057600080fd5b50565b60008060008060008060c087890312156200022d57600080fd5b86516200023a81620001fa565b60208801519096506200024d81620001fa565b60408801519095506200026081620001fa565b60608801519094506200027381620001fa565b60808801519093506200028681620001fa565b60a08801519092506200029981620001fa565b809150509295509295509295565b634e487b7160e01b600052604160045260246000fd5b600181811c90821680620002d257607f821691505b602082108103620002f357634e487b7160e01b600052602260045260246000fd5b50919050565b601f8211156200034757600081815260208120601f850160051c81016020861015620003225750805b601f850160051c820191505b8181101562000343578281556001016200032e565b5050505b505050565b81516001600160401b03811115620003685762000368620002a7565b6200038081620003798454620002bd565b84620002f9565b602080601f831160018114620003b857600084156200039f5750858301515b600019600386901b1c1916600185901b17855562000343565b600085815260208120601f198616915b82811015620003e957888601518255948401946001909101908401620003c8565b5085821015620004085787850151600019600388901b60f8161c191681555b5050505050600190811b01905550565b60005b83811015620004355781810151838201526020016200041b565b50506000910152565b600081518084526200045881602086016020860162000418565b601f01601f19169290920160200192915050565b6020815260006200048160208301846200043e565b9392505050565b60a0815260006200049d60a08301886200043e565b8281036020840152620004b181886200043e565b905085151560408401528281036060840152620004cf81866200043e565b90508281036080840152620004e581856200043e565b98975050505050505050565b600060ff60f81b808660f81b168352808560f81b1660018401525082516200052181600285016020870162000418565b91909101600201949350505050565b60805160a05160c05160e05161010051610120516101405161016051610180516119ee620005fc6000396000610b6e015260006103ad01526000818161047a015281816104c5015261059401526000818161042f01526105100152600081816108a301528181610a8101528181610d5c01528181610de301528181610f86015261100d0152600081816107e8015281816109be01528181610c4e01528181610cd501528181610e780152610eff0152600061068c015260006101d2015260006101ab01526119ee6000f3fe608060405234801561001057600080fd5b50600436106100a95760003560e01c806394a6878b1161007157806394a6878b1461011f578063b2c312591461014d578063bcbec74014610193578063be193d27146101a6578063c5a1d7f0146101cd578063d3d72d2a1461020257600080fd5b806306fdde03146100ae5780634b8937df146100cc57806354fd4d50146100e15780636f80392f146100e9578063835b7d8d1461010c575b600080fd5b6100b6610239565b6040516100c39190611384565b60405180910390f35b6100df6100da3660046113c9565b6102c7565b005b6100b66102df565b6100fc6100f7366004611419565b6102ec565b60405190151581526020016100c3565b6100df61011a366004611515565b6105d6565b61013261012d3660046115c2565b610769565b604080518251815260209283015192810192909252016100c3565b61016061015b36600461161e565b610c10565b6040516100c391908151815260208083015190820152604080830151908201526060918201519181019190915260800190565b6101326101a13660046113c9565b611069565b6100fc7f000000000000000000000000000000000000000000000000000000000000000081565b6101f47f000000000000000000000000000000000000000000000000000000000000000081565b6040519081526020016100c3565b61022b604080513060208201526003916060910160405160208183030381529060405290509091565b6040516100c392919061163b565b6000805461024690611654565b80601f016020809104026020016040519081016040528092919081815260200182805461027290611654565b80156102bf5780601f10610294576101008083540402835291602001916102bf565b820191906000526020600020905b8154815290600101906020018083116102a257829003601f168201915b505050505081565b60006102d98383356020850135610769565b50505050565b6001805461024690611654565b6000806102ff604084016020850161169d565b61030f606085016040860161169d565b604080516001600160a01b0393841660208201529290911690820152606080850135908201526080808501359082015260a00160408051601f198184030181529190528051602090910120905060006103a98261036f60c08701876116ba565b8080601f0160208091040260200160405190810160405280939291908181526020018383808284376000920191909152506110b892505050565b90507f00000000000000000000000000000000000000000000000000000000000000006001600160a01b0316816001600160a01b0316146104255760405162461bcd60e51b8152602060048201526011602482015270696e76616c6964207369676e617475726560781b60448201526064015b60405180910390fd5b6001600160a01b037f00000000000000000000000000000000000000000000000000000000000000001661045f604086016020870161169d565b6001600160a01b03161480156104b557506001600160a01b037f0000000000000000000000000000000000000000000000000000000000000000166104aa606086016040870161169d565b6001600160a01b0316145b8061054b57506001600160a01b037f0000000000000000000000000000000000000000000000000000000000000000166104f5604086016020870161169d565b6001600160a01b031614801561054b57506001600160a01b037f000000000000000000000000000000000000000000000000000000000000000016610540606086016040870161169d565b6001600160a01b0316145b61058a5760405162461bcd60e51b815260206004820152601060248201526f3ab739bab83837b93a32b2103830b4b960811b604482015260640161041c565b6001600160a01b037f0000000000000000000000000000000000000000000000000000000000000000166105c4604086016020870161169d565b6001600160a01b031614949350505050565b60608401356105ea60208501358535611701565b146106255760405162461bcd60e51b815260206004820152600b60248201526a0c8f040dad2e6dac2e8c6d60ab1b604482015260640161041c565b60006040518061012001604052806001815260200184600001518152602001846020015181526020018460400151815260200184606001518152602001856000013581526020018360000151815260200185602001358152602001836020015181525090507f00000000000000000000000000000000000000000000000000000000000000006001600160a01b031663c542c93b85604001866080018761010001856040518563ffffffff1660e01b81526004016106e69493929190611722565b602060405180830381865afa158015610703573d6000803e3d6000fd5b505050506040513d601f19601f820116820180604052508101906107279190611790565b6107625760405162461bcd60e51b815260206004820152600c60248201526b1c1c9bdbd98819985a5b195960a21b604482015260640161041c565b5050505050565b6040805180820190915260008082526020820152606060008411801561078f5750600083115b15610958576040805160028082526060820190925290816020015b604080516060808201835260008083526020830152918101919091528152602001906001900390816107aa57905050905060405180606001604052807f00000000000000000000000000000000000000000000000000000000000000006001600160a01b031681526020016000815260200186602001602081019061082f919061169d565b6040516001600160a01b0390911660248201526044810187905260640160408051601f198184030181529190526020810180516001600160e01b031663d004f0f760e01b17905290528151829060009061088b5761088b6117ad565b602002602001018190525060405180606001604052807f00000000000000000000000000000000000000000000000000000000000000006001600160a01b03168152602001600081526020018660200160208101906108ea919061169d565b6040516001600160a01b0390911660248201526044810186905260640160408051601f198184030181529190526020810180516001600160e01b031663d004f0f760e01b1790529052815182906001908110610948576109486117ad565b6020026020010181905250610b30565b60408051600180825281830190925290816020015b6040805160608082018352600080835260208301529181019190915281526020019060019003908161096d5790505090506000841180156109ac575082155b15610a615760405180606001604052807f00000000000000000000000000000000000000000000000000000000000000006001600160a01b0316815260200160008152602001866020016020810190610a05919061169d565b6040516001600160a01b0390911660248201526044810187905260640160408051601f198184030181529190526020810180516001600160e01b031663d004f0f760e01b179052905281518290600090610948576109486117ad565b83158015610a6f5750600083115b15610b305760405180606001604052807f00000000000000000000000000000000000000000000000000000000000000006001600160a01b0316815260200160008152602001866020016020810190610ac8919061169d565b6040516001600160a01b0390911660248201526044810186905260640160408051601f198184030181529190526020810180516001600160e01b031663d004f0f760e01b179052905281518290600090610b2457610b246117ad565b60200260200101819052505b60408051808201825260008082526020808301829052835160608101855285815260a08a013581830152938401919091529093506001600160a01b037f00000000000000000000000000000000000000000000000000000000000000001690630f99191590610ba19089018961169d565b836040518363ffffffff1660e01b8152600401610bbf9291906117c3565b6000604051808303816000875af1158015610bde573d6000803e3d6000fd5b505050506040513d6000823e601f3d908101601f19168201604052610c069190810190611873565b5050509392505050565b610c3b6040518060800160405280600081526020016000815260200160008152602001600081525090565b8115610e6b5760405180608001604052807f00000000000000000000000000000000000000000000000000000000000000006001600160a01b031663443cb4bc6040518163ffffffff1660e01b8152600401602060405180830381865afa158015610caa573d6000803e3d6000fd5b505050506040513d601f19601f82011682018060405250810190610cce9190611989565b81526020017f00000000000000000000000000000000000000000000000000000000000000006001600160a01b0316635a76f25e6040518163ffffffff1660e01b8152600401602060405180830381865afa158015610d31573d6000803e3d6000fd5b505050506040513d601f19601f82011682018060405250810190610d559190611989565b81526020017f00000000000000000000000000000000000000000000000000000000000000006001600160a01b031663443cb4bc6040518163ffffffff1660e01b8152600401602060405180830381865afa158015610db8573d6000803e3d6000fd5b505050506040513d601f19601f82011682018060405250810190610ddc9190611989565b81526020017f00000000000000000000000000000000000000000000000000000000000000006001600160a01b0316635a76f25e6040518163ffffffff1660e01b8152600401602060405180830381865afa158015610e3f573d6000803e3d6000fd5b505050506040513d601f19601f82011682018060405250810190610e639190611989565b905292915050565b60405180608001604052807f00000000000000000000000000000000000000000000000000000000000000006001600160a01b0316635a76f25e6040518163ffffffff1660e01b8152600401602060405180830381865afa158015610ed4573d6000803e3d6000fd5b505050506040513d601f19601f82011682018060405250810190610ef89190611989565b81526020017f00000000000000000000000000000000000000000000000000000000000000006001600160a01b031663443cb4bc6040518163ffffffff1660e01b8152600401602060405180830381865afa158015610f5b573d6000803e3d6000fd5b505050506040513d601f19601f82011682018060405250810190610f7f9190611989565b81526020017f00000000000000000000000000000000000000000000000000000000000000006001600160a01b0316635a76f25e6040518163ffffffff1660e01b8152600401602060405180830381865afa158015610fe2573d6000803e3d6000fd5b505050506040513d601f19601f820116820180604052508101906110069190611989565b81526020017f00000000000000000000000000000000000000000000000000000000000000006001600160a01b031663443cb4bc6040518163ffffffff1660e01b8152600401602060405180830381865afa158015610e3f573d6000803e3d6000fd5b6040805180820190915260008082526020820152600061108f8484356020860135610769565b6040516308ab395560e01b8152815160048201526020820151602482015290915060440161041c565b60008060006110c785856110de565b915091506110d481611123565b5090505b92915050565b60008082516041036111145760208301516040840151606085015160001a61110887828585611270565b9450945050505061111c565b506000905060025b9250929050565b6000816004811115611137576111376119a2565b0361113f5750565b6001816004811115611153576111536119a2565b036111a05760405162461bcd60e51b815260206004820152601860248201527f45434453413a20696e76616c6964207369676e61747572650000000000000000604482015260640161041c565b60028160048111156111b4576111b46119a2565b036112015760405162461bcd60e51b815260206004820152601f60248201527f45434453413a20696e76616c6964207369676e6174757265206c656e67746800604482015260640161041c565b6003816004811115611215576112156119a2565b0361126d5760405162461bcd60e51b815260206004820152602260248201527f45434453413a20696e76616c6964207369676e6174757265202773272076616c604482015261756560f01b606482015260840161041c565b50565b6000807f7fffffffffffffffffffffffffffffff5d576e7357a4501ddfe92f46681b20a08311156112a7575060009050600361132b565b6040805160008082526020820180845289905260ff881692820192909252606081018690526080810185905260019060a0016020604051602081039080840390855afa1580156112fb573d6000803e3d6000fd5b5050604051601f1901519150506001600160a01b0381166113245760006001925092505061132b565b9150600090505b94509492505050565b60005b8381101561134f578181015183820152602001611337565b50506000910152565b60008151808452611370816020860160208601611334565b601f01601f19169290920160200192915050565b6020815260006113976020830184611358565b9392505050565b600060e082840312156113b057600080fd5b50919050565b600061014082840312156113b057600080fd5b60008061016083850312156113dd57600080fd5b823567ffffffffffffffff8111156113f457600080fd5b6114008582860161139e565b92505061141084602085016113b6565b90509250929050565b60006020828403121561142b57600080fd5b813567ffffffffffffffff81111561144257600080fd5b61144e8482850161139e565b949350505050565b634e487b7160e01b600052604160045260246000fd5b6040516080810167ffffffffffffffff8111828210171561148f5761148f611456565b60405290565b604051601f8201601f1916810167ffffffffffffffff811182821017156114be576114be611456565b604052919050565b6000604082840312156114d857600080fd5b6040516040810181811067ffffffffffffffff821117156114fb576114fb611456565b604052823581526020928301359281019290925250919050565b60008060008084860361022081121561152d57600080fd5b853567ffffffffffffffff81111561154457600080fd5b6115508882890161139e565b95505061156087602088016113b6565b9350608061015f198201121561157557600080fd5b5061157e61146c565b610160860135815261018086013560208201526101a086013560408201526101c0860135606082015291506115b7866101e087016114c6565b905092959194509250565b6000806000606084860312156115d757600080fd5b833567ffffffffffffffff8111156115ee57600080fd5b6115fa8682870161139e565b9660208601359650604090950135949350505050565b801515811461126d57600080fd5b60006020828403121561163057600080fd5b813561139781611610565b82815260406020820152600061144e6040830184611358565b600181811c9082168061166857607f821691505b6020821081036113b057634e487b7160e01b600052602260045260246000fd5b6001600160a01b038116811461126d57600080fd5b6000602082840312156116af57600080fd5b813561139781611688565b6000808335601e198436030181126116d157600080fd5b83018035915067ffffffffffffffff8211156116ec57600080fd5b60200191503681900382131561111c57600080fd5b808201808211156110d857634e487b7160e01b600052601160045260246000fd5b61022081016040808784378083018660005b600281101561175157838284379183019190830190600101611734565b505050808560c08501375061010082018360005b6009811015611784578151835260209283019290910190600101611765565b50505095945050505050565b6000602082840312156117a257600080fd5b815161139781611610565b634e487b7160e01b600052603260045260246000fd5b6000604060018060a01b0380861684526020828186015260a0850186516060808689015282825180855260c08a01915060c08160051b8b01019450858401935060005b8181101561184f578a860360bf190183528451805189168752878101518888015289015189870185905261183c85880182611358565b9650509386019391860191600101611806565b50505083890151818901525050838701516080870152809450505050509392505050565b6000602080838503121561188657600080fd5b825167ffffffffffffffff8082111561189e57600080fd5b8185019150601f86818401126118b357600080fd5b8251828111156118c5576118c5611456565b8060051b6118d4868201611495565b918252848101860191868101908a8411156118ee57600080fd5b87870192505b8383101561197b5782518681111561190c5760008081fd5b8701603f81018c1361191e5760008081fd5b8881015160408882111561193457611934611456565b611945828901601f19168c01611495565b8281528e8284860101111561195a5760008081fd5b611969838d8301848701611334565b855250505091870191908701906118f4565b9a9950505050505050505050565b60006020828403121561199b57600080fd5b5051919050565b634e487b7160e01b600052602160045260246000fdfea26469706673582212208e9e2e527de5146b897038826556ffbe028303d833ec51dd8744d3aab5de9e1964736f6c6343000813003368747470733a2f2f356166652e6769746875622e696f2f736166652d636f72652d70726f746f636f6c2d64656d6f2f232f72656c61792f247b706c7567696e7d",
    "linkReferences": {}
  },
  "methodIdentifiers": {
    "executeIntent((address,address,address,uint256,uint256,uint256,bytes),uint256,uint256)": "94a6878b",
    "getState(bool)": "b2c31259",
    "metadataHash()": "c5a1d7f0",
    "metadataProvider()": "d3d72d2a",
    "name()": "06fdde03",
    "requiresRootAccess()": "be193d27",
    "simulateExecution((address,address,address,uint256,uint256,uint256,bytes),(uint256,uint256,uint256[2],uint256[2][2],uint256[2]))": "bcbec740",
    "tradeWithIntent((address,address,address,uint256,uint256,uint256,bytes),(uint256,uint256,uint256[2],uint256[2][2],uint256[2]))": "4b8937df",
    "validateIntent((address,address,address,uint256,uint256,uint256,bytes))": "6f80392f",
    "validateSolution((address,address,address,uint256,uint256,uint256,bytes),(uint256,uint256,uint256[2],uint256[2][2],uint256[2]),(uint256,uint256,uint256,uint256),(uint256,uint256))": "835b7d8d",
    "version()": "54fd4d50"
  },
  "id": 52
}