{
  "abi": [
    {
      "inputs": [
        {
          "internalType": "contract CPAMM",
          "name": "_dexA",
          "type": "address"
        },
        {
          "internalType": "contract CPAMM",
          "name": "_dexB",
          "type": "address"
        },
        {
          "internalType": "address",
          "name": "_weth",
          "type": "address"
        },
        {
          "internalType": "address",
          "name": "_dai",
          "type": "address"
        },
        {
          "internalType": "contract Groth16Verifier",
          "name": "_verifier",
          "type": "address"
        },
        {
          "internalType": "contract ISafeManager",
          "name": "_safeProtocolManager",
          "type": "address"
        }
      ],
      "stateMutability": "nonpayable",
      "type": "constructor"
    },
    {
      "inputs": [
        {
          "components": [
            {
              "internalType": "uint256",
              "name": "dyA",
              "type": "uint256"
            },
            {
              "internalType": "uint256",
              "name": "dyB",
              "type": "uint256"
            }
          ],
          "internalType": "struct Plugin.Received",
          "name": "received",
          "type": "tuple"
        }
      ],
      "name": "ReturnReceived",
      "type": "error"
    },
    {
      "anonymous": false,
      "inputs": [
        {
          "indexed": true,
          "internalType": "bytes32",
          "name": "metadataHash",
          "type": "bytes32"
        },
        {
          "indexed": false,
          "internalType": "bytes",
          "name": "data",
          "type": "bytes"
        }
      ],
      "name": "Metadata",
      "type": "event"
    },
    {
      "inputs": [
        {
          "internalType": "bool",
          "name": "daiForEth",
          "type": "bool"
        }
      ],
      "name": "getState",
      "outputs": [
        {
          "components": [
            {
              "internalType": "uint256",
              "name": "xA",
              "type": "uint256"
            },
            {
              "internalType": "uint256",
              "name": "yA",
              "type": "uint256"
            },
            {
              "internalType": "uint256",
              "name": "xB",
              "type": "uint256"
            },
            {
              "internalType": "uint256",
              "name": "yB",
              "type": "uint256"
            }
          ],
          "internalType": "struct Plugin.State",
          "name": "state",
          "type": "tuple"
        }
      ],
      "stateMutability": "view",
      "type": "function"
    },
    {
      "inputs": [],
      "name": "metadataHash",
      "outputs": [
        {
          "internalType": "bytes32",
          "name": "",
          "type": "bytes32"
        }
      ],
      "stateMutability": "view",
      "type": "function"
    },
    {
      "inputs": [],
      "name": "metadataProvider",
      "outputs": [
        {
          "internalType": "uint256",
          "name": "providerType",
          "type": "uint256"
        },
        {
          "internalType": "bytes",
          "name": "location",
          "type": "bytes"
        }
      ],
      "stateMutability": "view",
      "type": "function"
    },
    {
      "inputs": [],
      "name": "name",
      "outputs": [
        {
          "internalType": "string",
          "name": "",
          "type": "string"
        }
      ],
      "stateMutability": "view",
      "type": "function"
    },
    {
      "inputs": [],
      "name": "requiresRootAccess",
      "outputs": [
        {
          "internalType": "bool",
          "name": "",
          "type": "bool"
        }
      ],
      "stateMutability": "view",
      "type": "function"
    },
    {
      "inputs": [
        {
          "components": [
            {
              "internalType": "contract ISafe",
              "name": "safe",
              "type": "address"
            },
            {
              "internalType": "address",
              "name": "inToken",
              "type": "address"
            },
            {
              "internalType": "address",
              "name": "outToken",
              "type": "address"
            },
            {
              "internalType": "uint256",
              "name": "dx",
              "type": "uint256"
            },
            {
              "internalType": "uint256",
              "name": "minDy",
              "type": "uint256"
            },
            {
              "internalType": "uint256",
              "name": "nonce",
              "type": "uint256"
            },
            {
              "internalType": "bytes",
              "name": "signature",
              "type": "bytes"
            }
          ],
          "internalType": "struct Plugin.UserData",
          "name": "intent",
          "type": "tuple"
        },
        {
          "components": [
            {
              "internalType": "uint256",
              "name": "dxA",
              "type": "uint256"
            },
            {
              "internalType": "uint256",
              "name": "dxB",
              "type": "uint256"
            },
            {
              "internalType": "uint256[2]",
              "name": "_pA",
              "type": "uint256[2]"
            },
            {
              "internalType": "uint256[2][2]",
              "name": "_pB",
              "type": "uint256[2][2]"
            },
            {
              "internalType": "uint256[2]",
              "name": "_pC",
              "type": "uint256[2]"
            }
          ],
          "internalType": "struct Plugin.Solution",
          "name": "solution",
          "type": "tuple"
        }
      ],
      "name": "simulateExecution",
      "outputs": [
        {
          "components": [
            {
              "internalType": "uint256",
              "name": "dyA",
              "type": "uint256"
            },
            {
              "internalType": "uint256",
              "name": "dyB",
              "type": "uint256"
            }
          ],
          "internalType": "struct Plugin.Received",
          "name": "_received",
          "type": "tuple"
        }
      ],
      "stateMutability": "nonpayable",
      "type": "function"
    },
    {
      "inputs": [
        {
          "components": [
            {
              "internalType": "contract ISafe",
              "name": "safe",
              "type": "address"
            },
            {
              "internalType": "address",
              "name": "inToken",
              "type": "address"
            },
            {
              "internalType": "address",
              "name": "outToken",
              "type": "address"
            },
            {
              "internalType": "uint256",
              "name": "dx",
              "type": "uint256"
            },
            {
              "internalType": "uint256",
              "name": "minDy",
              "type": "uint256"
            },
            {
              "internalType": "uint256",
              "name": "nonce",
              "type": "uint256"
            },
            {
              "internalType": "bytes",
              "name": "signature",
              "type": "bytes"
            }
          ],
          "internalType": "struct Plugin.UserData",
          "name": "intent",
          "type": "tuple"
        },
        {
          "components": [
            {
              "internalType": "uint256",
              "name": "dxA",
              "type": "uint256"
            },
            {
              "internalType": "uint256",
              "name": "dxB",
              "type": "uint256"
            },
            {
              "internalType": "uint256[2]",
              "name": "_pA",
              "type": "uint256[2]"
            },
            {
              "internalType": "uint256[2][2]",
              "name": "_pB",
              "type": "uint256[2][2]"
            },
            {
              "internalType": "uint256[2]",
              "name": "_pC",
              "type": "uint256[2]"
            }
          ],
          "internalType": "struct Plugin.Solution",
          "name": "solution",
          "type": "tuple"
        }
      ],
      "name": "tradeWithIntent",
      "outputs": [],
      "stateMutability": "nonpayable",
      "type": "function"
    },
    {
      "inputs": [
        {
          "components": [
            {
              "internalType": "contract ISafe",
              "name": "safe",
              "type": "address"
            },
            {
              "internalType": "address",
              "name": "inToken",
              "type": "address"
            },
            {
              "internalType": "address",
              "name": "outToken",
              "type": "address"
            },
            {
              "internalType": "uint256",
              "name": "dx",
              "type": "uint256"
            },
            {
              "internalType": "uint256",
              "name": "minDy",
              "type": "uint256"
            },
            {
              "internalType": "uint256",
              "name": "nonce",
              "type": "uint256"
            },
            {
              "internalType": "bytes",
              "name": "signature",
              "type": "bytes"
            }
          ],
          "internalType": "struct Plugin.UserData",
          "name": "intent",
          "type": "tuple"
        }
      ],
      "name": "validateIntent",
      "outputs": [
        {
          "internalType": "bool",
          "name": "daiForEth",
          "type": "bool"
        }
      ],
      "stateMutability": "view",
      "type": "function"
    },
    {
      "inputs": [
        {
          "components": [
            {
              "internalType": "contract ISafe",
              "name": "safe",
              "type": "address"
            },
            {
              "internalType": "address",
              "name": "inToken",
              "type": "address"
            },
            {
              "internalType": "address",
              "name": "outToken",
              "type": "address"
            },
            {
              "internalType": "uint256",
              "name": "dx",
              "type": "uint256"
            },
            {
              "internalType": "uint256",
              "name": "minDy",
              "type": "uint256"
            },
            {
              "internalType": "uint256",
              "name": "nonce",
              "type": "uint256"
            },
            {
              "internalType": "bytes",
              "name": "signature",
              "type": "bytes"
            }
          ],
          "internalType": "struct Plugin.UserData",
          "name": "intent",
          "type": "tuple"
        },
        {
          "components": [
            {
              "internalType": "uint256",
              "name": "dxA",
              "type": "uint256"
            },
            {
              "internalType": "uint256",
              "name": "dxB",
              "type": "uint256"
            },
            {
              "internalType": "uint256[2]",
              "name": "_pA",
              "type": "uint256[2]"
            },
            {
              "internalType": "uint256[2][2]",
              "name": "_pB",
              "type": "uint256[2][2]"
            },
            {
              "internalType": "uint256[2]",
              "name": "_pC",
              "type": "uint256[2]"
            }
          ],
          "internalType": "struct Plugin.Solution",
          "name": "solution",
          "type": "tuple"
        },
        {
          "components": [
            {
              "internalType": "uint256",
              "name": "xA",
              "type": "uint256"
            },
            {
              "internalType": "uint256",
              "name": "yA",
              "type": "uint256"
            },
            {
              "internalType": "uint256",
              "name": "xB",
              "type": "uint256"
            },
            {
              "internalType": "uint256",
              "name": "yB",
              "type": "uint256"
            }
          ],
          "internalType": "struct Plugin.State",
          "name": "s",
          "type": "tuple"
        },
        {
          "components": [
            {
              "internalType": "uint256",
              "name": "dyA",
              "type": "uint256"
            },
            {
              "internalType": "uint256",
              "name": "dyB",
              "type": "uint256"
            }
          ],
          "internalType": "struct Plugin.Received",
          "name": "received",
          "type": "tuple"
        }
      ],
      "name": "validateSolution",
      "outputs": [],
      "stateMutability": "view",
      "type": "function"
    },
    {
      "inputs": [],
      "name": "version",
      "outputs": [
        {
          "internalType": "string",
          "name": "",
          "type": "string"
        }
      ],
      "stateMutability": "view",
      "type": "function"
    }
  ],
  "bytecode": {
    "object": "0x6101a06040523480156200001257600080fd5b5060405162001bd938038062001bd9833981016040819052620000359162000213565b6040518060a001604052806040518060400160405280600c81526020016b2932b630bc9028363ab3b4b760a11b8152508152602001604051806040016040528060058152602001640312e302e360dc1b815250815260200160001515815260200160405180602001604052806000815250815260200160405180606001604052806040815260200162001b9960409139905280518190600090620000da90826200034c565b506020810151600190620000ef90826200034c565b506040810151151560805262000105816200018f565b805160209091012060a081905290507f522c683f99251eea7f3b027592e92a5398e7582983be1f7c0f33715ce025740f62000140836200018f565b6040516200014f91906200046c565b60405180910390a2506001600160a01b0395861660e0529385166101005291841661012052831661014052821660c0523361016052166101805262000530565b606060008083600001518460200151856040015186606001518760800151604051602001620001c395949392919062000488565b60408051601f1981840301815290829052620001e4939291602001620004f1565b6040516020818303038152906040529050919050565b6001600160a01b03811681146200021057600080fd5b50565b60008060008060008060c087890312156200022d57600080fd5b86516200023a81620001fa565b60208801519096506200024d81620001fa565b60408801519095506200026081620001fa565b60608801519094506200027381620001fa565b60808801519093506200028681620001fa565b60a08801519092506200029981620001fa565b809150509295509295509295565b634e487b7160e01b600052604160045260246000fd5b600181811c90821680620002d257607f821691505b602082108103620002f357634e487b7160e01b600052602260045260246000fd5b50919050565b601f8211156200034757600081815260208120601f850160051c81016020861015620003225750805b601f850160051c820191505b8181101562000343578281556001016200032e565b5050505b505050565b81516001600160401b03811115620003685762000368620002a7565b6200038081620003798454620002bd565b84620002f9565b602080601f831160018114620003b857600084156200039f5750858301515b600019600386901b1c1916600185901b17855562000343565b600085815260208120601f198616915b82811015620003e957888601518255948401946001909101908401620003c8565b5085821015620004085787850151600019600388901b60f8161c191681555b5050505050600190811b01905550565b60005b83811015620004355781810151838201526020016200041b565b50506000910152565b600081518084526200045881602086016020860162000418565b601f01601f19169290920160200192915050565b6020815260006200048160208301846200043e565b9392505050565b60a0815260006200049d60a08301886200043e565b8281036020840152620004b181886200043e565b905085151560408401528281036060840152620004cf81866200043e565b90508281036080840152620004e581856200043e565b98975050505050505050565b600060ff60f81b808660f81b168352808560f81b1660018401525082516200052181600285016020870162000418565b91909101600201949350505050565b60805160a05160c05160e05161010051610120516101405161016051610180516115a0620005f96000396000610ee60152600050506000818161034e01528181610399015261046d01526000818161030301526103e40152600081816107850152818161080c015281816109af01528181610a3601528181610c1b0152610df9015260008181610677015281816106fe015281816108a10152818161092801528181610b600152610d3601526000610563015260006101b40152600061018d01526115a06000f3fe608060405234801561001057600080fd5b506004361061009e5760003560e01c8063b2c3125911610066578063b2c3125914610114578063bcbec7401461015a578063be193d2714610188578063c5a1d7f0146101af578063d3d72d2a146101e457600080fd5b806306fdde03146100a35780634b8937df146100c157806354fd4d50146100d65780636f80392f146100de578063835b7d8d14610101575b600080fd5b6100ab61021b565b6040516100b89190610fd8565b60405180910390f35b6100d46100cf36600461101d565b6102a9565b005b6100ab6102ea565b6100f16100ec36600461106d565b6102f7565b60405190151581526020016100b8565b6100d461010f366004611169565b6104ad565b610127610122366004611227565b610639565b6040516100b891908151815260208083015190820152604080830151908201526060918201519181019190915260800190565b61016d61016836600461101d565b610a92565b604080518251815260209283015192810192909252016100b8565b6100f17f000000000000000000000000000000000000000000000000000000000000000081565b6101d67f000000000000000000000000000000000000000000000000000000000000000081565b6040519081526020016100b8565b61020d604080513060208201526003916060910160405160208183030381529060405290509091565b6040516100b8929190611244565b600080546102289061125d565b80601f01602080910402602001604051908101604052809291908181526020018280546102549061125d565b80156102a15780601f10610276576101008083540402835291602001916102a1565b820191906000526020600020905b81548152906001019060200180831161028457829003601f168201915b505050505081565b60006102b4836102f7565b905060006102c182610639565b905060006102d58585356020870135610ae1565b90506102e3858584846104ad565b5050505050565b600180546102289061125d565b60006001600160a01b037f00000000000000000000000000000000000000000000000000000000000000001661033360408401602085016112a6565b6001600160a01b031614801561038957506001600160a01b037f00000000000000000000000000000000000000000000000000000000000000001661037e60608401604085016112a6565b6001600160a01b0316145b8061041f57506001600160a01b037f0000000000000000000000000000000000000000000000000000000000000000166103c960408401602085016112a6565b6001600160a01b031614801561041f57506001600160a01b037f00000000000000000000000000000000000000000000000000000000000000001661041460608401604085016112a6565b6001600160a01b0316145b6104635760405162461bcd60e51b815260206004820152601060248201526f3ab739bab83837b93a32b2103830b4b960811b60448201526064015b60405180910390fd5b6001600160a01b037f00000000000000000000000000000000000000000000000000000000000000001661049d60408401602085016112a6565b6001600160a01b03161492915050565b60608401356104c1602085013585356112c3565b146104fc5760405162461bcd60e51b815260206004820152600b60248201526a0c8f040dad2e6dac2e8c6d60ab1b604482015260640161045a565b60006040518061012001604052806001815260200184600001518152602001846020015181526020018460400151815260200184606001518152602001856000013581526020018360000151815260200185602001358152602001836020015181525090507f00000000000000000000000000000000000000000000000000000000000000006001600160a01b031663c542c93b85604001866080018761010001856040518563ffffffff1660e01b81526004016105bd94939291906112ea565b602060405180830381865afa1580156105da573d6000803e3d6000fd5b505050506040513d601f19601f820116820180604052508101906105fe9190611358565b6102e35760405162461bcd60e51b815260206004820152600c60248201526b1c1c9bdbd98819985a5b195960a21b604482015260640161045a565b6106646040518060800160405280600081526020016000815260200160008152602001600081525090565b81156108945760405180608001604052807f00000000000000000000000000000000000000000000000000000000000000006001600160a01b031663443cb4bc6040518163ffffffff1660e01b8152600401602060405180830381865afa1580156106d3573d6000803e3d6000fd5b505050506040513d601f19601f820116820180604052508101906106f79190611375565b81526020017f00000000000000000000000000000000000000000000000000000000000000006001600160a01b0316635a76f25e6040518163ffffffff1660e01b8152600401602060405180830381865afa15801561075a573d6000803e3d6000fd5b505050506040513d601f19601f8201168201806040525081019061077e9190611375565b81526020017f00000000000000000000000000000000000000000000000000000000000000006001600160a01b031663443cb4bc6040518163ffffffff1660e01b8152600401602060405180830381865afa1580156107e1573d6000803e3d6000fd5b505050506040513d601f19601f820116820180604052508101906108059190611375565b81526020017f00000000000000000000000000000000000000000000000000000000000000006001600160a01b0316635a76f25e6040518163ffffffff1660e01b8152600401602060405180830381865afa158015610868573d6000803e3d6000fd5b505050506040513d601f19601f8201168201806040525081019061088c9190611375565b905292915050565b60405180608001604052807f00000000000000000000000000000000000000000000000000000000000000006001600160a01b0316635a76f25e6040518163ffffffff1660e01b8152600401602060405180830381865afa1580156108fd573d6000803e3d6000fd5b505050506040513d601f19601f820116820180604052508101906109219190611375565b81526020017f00000000000000000000000000000000000000000000000000000000000000006001600160a01b031663443cb4bc6040518163ffffffff1660e01b8152600401602060405180830381865afa158015610984573d6000803e3d6000fd5b505050506040513d601f19601f820116820180604052508101906109a89190611375565b81526020017f00000000000000000000000000000000000000000000000000000000000000006001600160a01b0316635a76f25e6040518163ffffffff1660e01b8152600401602060405180830381865afa158015610a0b573d6000803e3d6000fd5b505050506040513d601f19601f82011682018060405250810190610a2f9190611375565b81526020017f00000000000000000000000000000000000000000000000000000000000000006001600160a01b031663443cb4bc6040518163ffffffff1660e01b8152600401602060405180830381865afa158015610868573d6000803e3d6000fd5b60408051808201909152600080825260208201526000610ab88484356020860135610ae1565b6040516308ab395560e01b8152815160048201526020820151602482015290915060440161045a565b60408051808201909152600080825260208201526060600084118015610b075750600083115b15610cd0576040805160028082526060820190925290816020015b60408051606080820183526000808352602083015291810191909152815260200190600190039081610b2257905050905060405180606001604052807f00000000000000000000000000000000000000000000000000000000000000006001600160a01b0316815260200160008152602001866020016020810190610ba791906112a6565b6040516001600160a01b0390911660248201526044810187905260640160408051601f198184030181529190526020810180516001600160e01b031663d004f0f760e01b179052905281518290600090610c0357610c0361138e565b602002602001018190525060405180606001604052807f00000000000000000000000000000000000000000000000000000000000000006001600160a01b0316815260200160008152602001866020016020810190610c6291906112a6565b6040516001600160a01b0390911660248201526044810186905260640160408051601f198184030181529190526020810180516001600160e01b031663d004f0f760e01b1790529052815182906001908110610cc057610cc061138e565b6020026020010181905250610ea8565b60408051600180825281830190925290816020015b60408051606080820183526000808352602083015291810191909152815260200190600190039081610ce5579050509050600084118015610d24575082155b15610dd95760405180606001604052807f00000000000000000000000000000000000000000000000000000000000000006001600160a01b0316815260200160008152602001866020016020810190610d7d91906112a6565b6040516001600160a01b0390911660248201526044810187905260640160408051601f198184030181529190526020810180516001600160e01b031663d004f0f760e01b179052905281518290600090610cc057610cc061138e565b83158015610de75750600083115b15610ea85760405180606001604052807f00000000000000000000000000000000000000000000000000000000000000006001600160a01b0316815260200160008152602001866020016020810190610e4091906112a6565b6040516001600160a01b0390911660248201526044810186905260640160408051601f198184030181529190526020810180516001600160e01b031663d004f0f760e01b179052905281518290600090610e9c57610e9c61138e565b60200260200101819052505b60408051808201825260008082526020808301829052835160608101855285815260a08a013581830152938401919091529093506001600160a01b037f00000000000000000000000000000000000000000000000000000000000000001690630f99191590610f19908901896112a6565b836040518363ffffffff1660e01b8152600401610f379291906113a4565b6000604051808303816000875af1158015610f56573d6000803e3d6000fd5b505050506040513d6000823e601f3d908101601f19168201604052610f7e9190810190611454565b5050509392505050565b60005b83811015610fa3578181015183820152602001610f8b565b50506000910152565b60008151808452610fc4816020860160208601610f88565b601f01601f19169290920160200192915050565b602081526000610feb6020830184610fac565b9392505050565b600060e0828403121561100457600080fd5b50919050565b6000610140828403121561100457600080fd5b600080610160838503121561103157600080fd5b823567ffffffffffffffff81111561104857600080fd5b61105485828601610ff2565b925050611064846020850161100a565b90509250929050565b60006020828403121561107f57600080fd5b813567ffffffffffffffff81111561109657600080fd5b6110a284828501610ff2565b949350505050565b634e487b7160e01b600052604160045260246000fd5b6040516080810167ffffffffffffffff811182821017156110e3576110e36110aa565b60405290565b604051601f8201601f1916810167ffffffffffffffff81118282101715611112576111126110aa565b604052919050565b60006040828403121561112c57600080fd5b6040516040810181811067ffffffffffffffff8211171561114f5761114f6110aa565b604052823581526020928301359281019290925250919050565b60008060008084860361022081121561118157600080fd5b853567ffffffffffffffff81111561119857600080fd5b6111a488828901610ff2565b9550506111b4876020880161100a565b9350608061015f19820112156111c957600080fd5b506111d26110c0565b610160860135815261018086013560208201526101a086013560408201526101c08601356060820152915061120b866101e0870161111a565b905092959194509250565b801515811461122457600080fd5b50565b60006020828403121561123957600080fd5b8135610feb81611216565b8281526040602082015260006110a26040830184610fac565b600181811c9082168061127157607f821691505b60208210810361100457634e487b7160e01b600052602260045260246000fd5b6001600160a01b038116811461122457600080fd5b6000602082840312156112b857600080fd5b8135610feb81611291565b808201808211156112e457634e487b7160e01b600052601160045260246000fd5b92915050565b61022081016040808784378083018660005b6002811015611319578382843791830191908301906001016112fc565b505050808560c08501375061010082018360005b600981101561134c57815183526020928301929091019060010161132d565b50505095945050505050565b60006020828403121561136a57600080fd5b8151610feb81611216565b60006020828403121561138757600080fd5b5051919050565b634e487b7160e01b600052603260045260246000fd5b6000604060018060a01b0380861684526020828186015260a0850186516060808689015282825180855260c08a01915060c08160051b8b01019450858401935060005b81811015611430578a860360bf190183528451805189168752878101518888015289015189870185905261141d85880182610fac565b96505093860193918601916001016113e7565b50505083890151818901525050838701516080870152809450505050509392505050565b6000602080838503121561146757600080fd5b825167ffffffffffffffff8082111561147f57600080fd5b8185019150601f868184011261149457600080fd5b8251828111156114a6576114a66110aa565b8060051b6114b58682016110e9565b918252848101860191868101908a8411156114cf57600080fd5b87870192505b8383101561155c578251868111156114ed5760008081fd5b8701603f81018c136114ff5760008081fd5b88810151604088821115611515576115156110aa565b611526828901601f19168c016110e9565b8281528e8284860101111561153b5760008081fd5b61154a838d8301848701610f88565b855250505091870191908701906114d5565b9a995050505050505050505056fea264697066735822122039e4cfe02e6ff6a8a70e23ec184b9fd8749ccd85c52ba093c27cf0616a180b6764736f6c6343000813003368747470733a2f2f356166652e6769746875622e696f2f736166652d636f72652d70726f746f636f6c2d64656d6f2f232f72656c61792f247b706c7567696e7d",
    "linkReferences": {}
  },
  "methodIdentifiers": {
    "getState(bool)": "b2c31259",
    "metadataHash()": "c5a1d7f0",
    "metadataProvider()": "d3d72d2a",
    "name()": "06fdde03",
    "requiresRootAccess()": "be193d27",
    "simulateExecution((address,address,address,uint256,uint256,uint256,bytes),(uint256,uint256,uint256[2],uint256[2][2],uint256[2]))": "bcbec740",
    "tradeWithIntent((address,address,address,uint256,uint256,uint256,bytes),(uint256,uint256,uint256[2],uint256[2][2],uint256[2]))": "4b8937df",
    "validateIntent((address,address,address,uint256,uint256,uint256,bytes))": "6f80392f",
    "validateSolution((address,address,address,uint256,uint256,uint256,bytes),(uint256,uint256,uint256[2],uint256[2][2],uint256[2]),(uint256,uint256,uint256,uint256),(uint256,uint256))": "835b7d8d",
    "version()": "54fd4d50"
  },
  "id": 52
}